{
  "_format": "hh-sol-artifact-1",
  "contractName": "KleoNFT",
  "sourceName": "contracts/KleoNFT.sol",
  "abi": [
    {
      "inputs": [],
      "stateMutability": "nonpayable",
      "type": "constructor"
    },
    {
      "anonymous": false,
      "inputs": [
        {
          "indexed": true,
          "internalType": "address",
          "name": "owner",
          "type": "address"
        },
        {
          "indexed": true,
          "internalType": "address",
          "name": "approved",
          "type": "address"
        },
        {
          "indexed": true,
          "internalType": "uint256",
          "name": "tokenId",
          "type": "uint256"
        }
      ],
      "name": "Approval",
      "type": "event"
    },
    {
      "anonymous": false,
      "inputs": [
        {
          "indexed": true,
          "internalType": "address",
          "name": "owner",
          "type": "address"
        },
        {
          "indexed": true,
          "internalType": "address",
          "name": "operator",
          "type": "address"
        },
        {
          "indexed": false,
          "internalType": "bool",
          "name": "approved",
          "type": "bool"
        }
      ],
      "name": "ApprovalForAll",
      "type": "event"
    },
    {
      "anonymous": false,
      "inputs": [
        {
          "indexed": false,
          "internalType": "uint256",
          "name": "newCooldown",
          "type": "uint256"
        }
      ],
      "name": "CooldownUpdated",
      "type": "event"
    },
    {
      "anonymous": false,
      "inputs": [
        {
          "indexed": false,
          "internalType": "uint256",
          "name": "newMax",
          "type": "uint256"
        }
      ],
      "name": "MaxMintsUpdated",
      "type": "event"
    },
    {
      "anonymous": false,
      "inputs": [
        {
          "indexed": false,
          "internalType": "uint256",
          "name": "newFee",
          "type": "uint256"
        }
      ],
      "name": "MintFeeUpdated",
      "type": "event"
    },
    {
      "anonymous": false,
      "inputs": [
        {
          "indexed": true,
          "internalType": "address",
          "name": "owner",
          "type": "address"
        },
        {
          "indexed": true,
          "internalType": "uint256",
          "name": "tokenId",
          "type": "uint256"
        },
        {
          "indexed": false,
          "internalType": "string",
          "name": "ipfsCID",
          "type": "string"
        },
        {
          "indexed": false,
          "internalType": "string",
          "name": "xrplAddress",
          "type": "string"
        },
        {
          "indexed": false,
          "internalType": "uint256",
          "name": "xrplRewards",
          "type": "uint256"
        }
      ],
      "name": "NFTMinted",
      "type": "event"
    },
    {
      "anonymous": false,
      "inputs": [
        {
          "indexed": true,
          "internalType": "address",
          "name": "previousOwner",
          "type": "address"
        },
        {
          "indexed": true,
          "internalType": "address",
          "name": "newOwner",
          "type": "address"
        }
      ],
      "name": "OwnershipTransferred",
      "type": "event"
    },
    {
      "anonymous": false,
      "inputs": [
        {
          "indexed": true,
          "internalType": "address",
          "name": "from",
          "type": "address"
        },
        {
          "indexed": true,
          "internalType": "address",
          "name": "to",
          "type": "address"
        },
        {
          "indexed": true,
          "internalType": "uint256",
          "name": "tokenId",
          "type": "uint256"
        }
      ],
      "name": "Transfer",
      "type": "event"
    },
    {
      "anonymous": false,
      "inputs": [
        {
          "indexed": true,
          "internalType": "uint256",
          "name": "tokenId",
          "type": "uint256"
        },
        {
          "indexed": false,
          "internalType": "uint256",
          "name": "rewards",
          "type": "uint256"
        }
      ],
      "name": "XRPLRewardsUpdated",
      "type": "event"
    },
    {
      "inputs": [
        {
          "internalType": "address",
          "name": "to",
          "type": "address"
        },
        {
          "internalType": "uint256",
          "name": "tokenId",
          "type": "uint256"
        }
      ],
      "name": "approve",
      "outputs": [],
      "stateMutability": "nonpayable",
      "type": "function"
    },
    {
      "inputs": [
        {
          "internalType": "address",
          "name": "owner",
          "type": "address"
        }
      ],
      "name": "balanceOf",
      "outputs": [
        {
          "internalType": "uint256",
          "name": "",
          "type": "uint256"
        }
      ],
      "stateMutability": "view",
      "type": "function"
    },
    {
      "inputs": [
        {
          "internalType": "address",
          "name": "user",
          "type": "address"
        }
      ],
      "name": "canUserMint",
      "outputs": [
        {
          "internalType": "bool",
          "name": "",
          "type": "bool"
        }
      ],
      "stateMutability": "view",
      "type": "function"
    },
    {
      "inputs": [],
      "name": "emergencyPause",
      "outputs": [],
      "stateMutability": "nonpayable",
      "type": "function"
    },
    {
      "inputs": [
        {
          "internalType": "uint256",
          "name": "tokenId",
          "type": "uint256"
        }
      ],
      "name": "getApproved",
      "outputs": [
        {
          "internalType": "address",
          "name": "",
          "type": "address"
        }
      ],
      "stateMutability": "view",
      "type": "function"
    },
    {
      "inputs": [
        {
          "internalType": "uint256",
          "name": "tokenId",
          "type": "uint256"
        }
      ],
      "name": "getIPFSCID",
      "outputs": [
        {
          "internalType": "string",
          "name": "",
          "type": "string"
        }
      ],
      "stateMutability": "view",
      "type": "function"
    },
    {
      "inputs": [
        {
          "internalType": "address",
          "name": "user",
          "type": "address"
        }
      ],
      "name": "getLastMintTime",
      "outputs": [
        {
          "internalType": "uint256",
          "name": "",
          "type": "uint256"
        }
      ],
      "stateMutability": "view",
      "type": "function"
    },
    {
      "inputs": [],
      "name": "getMaxMintsPerUser",
      "outputs": [
        {
          "internalType": "uint256",
          "name": "",
          "type": "uint256"
        }
      ],
      "stateMutability": "view",
      "type": "function"
    },
    {
      "inputs": [],
      "name": "getMintCooldown",
      "outputs": [
        {
          "internalType": "uint256",
          "name": "",
          "type": "uint256"
        }
      ],
      "stateMutability": "view",
      "type": "function"
    },
    {
      "inputs": [],
      "name": "getMintFee",
      "outputs": [
        {
          "internalType": "uint256",
          "name": "",
          "type": "uint256"
        }
      ],
      "stateMutability": "view",
      "type": "function"
    },
    {
      "inputs": [
        {
          "internalType": "address",
          "name": "user",
          "type": "address"
        }
      ],
      "name": "getRemainingMints",
      "outputs": [
        {
          "internalType": "uint256",
          "name": "",
          "type": "uint256"
        }
      ],
      "stateMutability": "view",
      "type": "function"
    },
    {
      "inputs": [
        {
          "internalType": "address",
          "name": "user",
          "type": "address"
        }
      ],
      "name": "getTimeUntilMint",
      "outputs": [
        {
          "internalType": "uint256",
          "name": "",
          "type": "uint256"
        }
      ],
      "stateMutability": "view",
      "type": "function"
    },
    {
      "inputs": [
        {
          "internalType": "address",
          "name": "user",
          "type": "address"
        }
      ],
      "name": "getUserMintCount",
      "outputs": [
        {
          "internalType": "uint256",
          "name": "",
          "type": "uint256"
        }
      ],
      "stateMutability": "view",
      "type": "function"
    },
    {
      "inputs": [
        {
          "internalType": "address",
          "name": "user",
          "type": "address"
        }
      ],
      "name": "getUserTotalXRPLRewards",
      "outputs": [
        {
          "internalType": "uint256",
          "name": "",
          "type": "uint256"
        }
      ],
      "stateMutability": "view",
      "type": "function"
    },
    {
      "inputs": [
        {
          "internalType": "uint256",
          "name": "tokenId",
          "type": "uint256"
        }
      ],
      "name": "getXRPLAddress",
      "outputs": [
        {
          "internalType": "string",
          "name": "",
          "type": "string"
        }
      ],
      "stateMutability": "view",
      "type": "function"
    },
    {
      "inputs": [
        {
          "internalType": "uint256",
          "name": "tokenId",
          "type": "uint256"
        }
      ],
      "name": "getXRPLRewards",
      "outputs": [
        {
          "internalType": "uint256",
          "name": "",
          "type": "uint256"
        }
      ],
      "stateMutability": "view",
      "type": "function"
    },
    {
      "inputs": [
        {
          "internalType": "address",
          "name": "owner",
          "type": "address"
        },
        {
          "internalType": "address",
          "name": "operator",
          "type": "address"
        }
      ],
      "name": "isApprovedForAll",
      "outputs": [
        {
          "internalType": "bool",
          "name": "",
          "type": "bool"
        }
      ],
      "stateMutability": "view",
      "type": "function"
    },
    {
      "inputs": [
        {
          "internalType": "address",
          "name": "",
          "type": "address"
        }
      ],
      "name": "lastMintTime",
      "outputs": [
        {
          "internalType": "uint256",
          "name": "",
          "type": "uint256"
        }
      ],
      "stateMutability": "view",
      "type": "function"
    },
    {
      "inputs": [],
      "name": "maxMintsPerUser",
      "outputs": [
        {
          "internalType": "uint256",
          "name": "",
          "type": "uint256"
        }
      ],
      "stateMutability": "view",
      "type": "function"
    },
    {
      "inputs": [],
      "name": "mintCooldown",
      "outputs": [
        {
          "internalType": "uint256",
          "name": "",
          "type": "uint256"
        }
      ],
      "stateMutability": "view",
      "type": "function"
    },
    {
      "inputs": [],
      "name": "mintFee",
      "outputs": [
        {
          "internalType": "uint256",
          "name": "",
          "type": "uint256"
        }
      ],
      "stateMutability": "view",
      "type": "function"
    },
    {
      "inputs": [
        {
          "internalType": "string",
          "name": "ipfsCID",
          "type": "string"
        },
        {
          "internalType": "string",
          "name": "metadata",
          "type": "string"
        },
        {
          "internalType": "string",
          "name": "xrplAddress",
          "type": "string"
        },
        {
          "internalType": "uint256",
          "name": "xrplRewards",
          "type": "uint256"
        }
      ],
      "name": "mintNFT",
      "outputs": [],
      "stateMutability": "payable",
      "type": "function"
    },
    {
      "inputs": [],
      "name": "name",
      "outputs": [
        {
          "internalType": "string",
          "name": "",
          "type": "string"
        }
      ],
      "stateMutability": "view",
      "type": "function"
    },
    {
      "inputs": [],
      "name": "owner",
      "outputs": [
        {
          "internalType": "address",
          "name": "",
          "type": "address"
        }
      ],
      "stateMutability": "view",
      "type": "function"
    },
    {
      "inputs": [
        {
          "internalType": "uint256",
          "name": "tokenId",
          "type": "uint256"
        }
      ],
      "name": "ownerOf",
      "outputs": [
        {
          "internalType": "address",
          "name": "",
          "type": "address"
        }
      ],
      "stateMutability": "view",
      "type": "function"
    },
    {
      "inputs": [],
      "name": "renounceOwnership",
      "outputs": [],
      "stateMutability": "nonpayable",
      "type": "function"
    },
    {
      "inputs": [
        {
          "internalType": "uint256",
          "name": "newMax",
          "type": "uint256"
        }
      ],
      "name": "resumeMinting",
      "outputs": [],
      "stateMutability": "nonpayable",
      "type": "function"
    },
    {
      "inputs": [
        {
          "internalType": "address",
          "name": "from",
          "type": "address"
        },
        {
          "internalType": "address",
          "name": "to",
          "type": "address"
        },
        {
          "internalType": "uint256",
          "name": "tokenId",
          "type": "uint256"
        }
      ],
      "name": "safeTransferFrom",
      "outputs": [],
      "stateMutability": "nonpayable",
      "type": "function"
    },
    {
      "inputs": [
        {
          "internalType": "address",
          "name": "from",
          "type": "address"
        },
        {
          "internalType": "address",
          "name": "to",
          "type": "address"
        },
        {
          "internalType": "uint256",
          "name": "tokenId",
          "type": "uint256"
        },
        {
          "internalType": "bytes",
          "name": "data",
          "type": "bytes"
        }
      ],
      "name": "safeTransferFrom",
      "outputs": [],
      "stateMutability": "nonpayable",
      "type": "function"
    },
    {
      "inputs": [
        {
          "internalType": "address",
          "name": "operator",
          "type": "address"
        },
        {
          "internalType": "bool",
          "name": "approved",
          "type": "bool"
        }
      ],
      "name": "setApprovalForAll",
      "outputs": [],
      "stateMutability": "nonpayable",
      "type": "function"
    },
    {
      "inputs": [
        {
          "internalType": "uint256",
          "name": "newMax",
          "type": "uint256"
        }
      ],
      "name": "setMaxMintsPerUser",
      "outputs": [],
      "stateMutability": "nonpayable",
      "type": "function"
    },
    {
      "inputs": [
        {
          "internalType": "uint256",
          "name": "newCooldown",
          "type": "uint256"
        }
      ],
      "name": "setMintCooldown",
      "outputs": [],
      "stateMutability": "nonpayable",
      "type": "function"
    },
    {
      "inputs": [
        {
          "internalType": "uint256",
          "name": "newFee",
          "type": "uint256"
        }
      ],
      "name": "setMintFee",
      "outputs": [],
      "stateMutability": "nonpayable",
      "type": "function"
    },
    {
      "inputs": [
        {
          "internalType": "bytes4",
          "name": "interfaceId",
          "type": "bytes4"
        }
      ],
      "name": "supportsInterface",
      "outputs": [
        {
          "internalType": "bool",
          "name": "",
          "type": "bool"
        }
      ],
      "stateMutability": "view",
      "type": "function"
    },
    {
      "inputs": [],
      "name": "symbol",
      "outputs": [
        {
          "internalType": "string",
          "name": "",
          "type": "string"
        }
      ],
      "stateMutability": "view",
      "type": "function"
    },
    {
      "inputs": [
        {
          "internalType": "uint256",
          "name": "index",
          "type": "uint256"
        }
      ],
      "name": "tokenByIndex",
      "outputs": [
        {
          "internalType": "uint256",
          "name": "",
          "type": "uint256"
        }
      ],
      "stateMutability": "view",
      "type": "function"
    },
    {
      "inputs": [
        {
          "internalType": "address",
          "name": "owner",
          "type": "address"
        },
        {
          "internalType": "uint256",
          "name": "index",
          "type": "uint256"
        }
      ],
      "name": "tokenOfOwnerByIndex",
      "outputs": [
        {
          "internalType": "uint256",
          "name": "",
          "type": "uint256"
        }
      ],
      "stateMutability": "view",
      "type": "function"
    },
    {
      "inputs": [
        {
          "internalType": "uint256",
          "name": "tokenId",
          "type": "uint256"
        }
      ],
      "name": "tokenURI",
      "outputs": [
        {
          "internalType": "string",
          "name": "",
          "type": "string"
        }
      ],
      "stateMutability": "view",
      "type": "function"
    },
    {
      "inputs": [],
      "name": "totalSupply",
      "outputs": [
        {
          "internalType": "uint256",
          "name": "",
          "type": "uint256"
        }
      ],
      "stateMutability": "view",
      "type": "function"
    },
    {
      "inputs": [
        {
          "internalType": "address",
          "name": "from",
          "type": "address"
        },
        {
          "internalType": "address",
          "name": "to",
          "type": "address"
        },
        {
          "internalType": "uint256",
          "name": "tokenId",
          "type": "uint256"
        }
      ],
      "name": "transferFrom",
      "outputs": [],
      "stateMutability": "nonpayable",
      "type": "function"
    },
    {
      "inputs": [
        {
          "internalType": "address",
          "name": "newOwner",
          "type": "address"
        }
      ],
      "name": "transferOwnership",
      "outputs": [],
      "stateMutability": "nonpayable",
      "type": "function"
    },
    {
      "inputs": [
        {
          "internalType": "uint256",
          "name": "tokenId",
          "type": "uint256"
        },
        {
          "internalType": "uint256",
          "name": "newRewards",
          "type": "uint256"
        }
      ],
      "name": "updateXRPLRewards",
      "outputs": [],
      "stateMutability": "nonpayable",
      "type": "function"
    },
    {
      "inputs": [
        {
          "internalType": "address",
          "name": "",
          "type": "address"
        }
      ],
      "name": "userMintCount",
      "outputs": [
        {
          "internalType": "uint256",
          "name": "",
          "type": "uint256"
        }
      ],
      "stateMutability": "view",
      "type": "function"
    },
    {
      "inputs": [],
      "name": "withdraw",
      "outputs": [],
      "stateMutability": "nonpayable",
      "type": "function"
    }
  ],
  "bytecode": "0x608060405266038d7ea4c68000600d55600a600e5561012c600f553480156200002757600080fd5b506040518060400160405280600c81526020016b4b6c656f2053746f7269657360a01b815250604051806040016040528060048152602001634b4c454f60e01b81525081600090816200007b9190620001b8565b5060016200008a8282620001b8565b505050620000a7620000a1620000bd60201b60201c565b620000c1565b6001600b55620000b733620000c1565b62000284565b3390565b600a80546001600160a01b038381166001600160a01b0319831681179093556040519116919082907f8be0079c531659141344cd1fd0a4f28419497f9722a3daafe3b4186f6b6457e090600090a35050565b634e487b7160e01b600052604160045260246000fd5b600181811c908216806200013e57607f821691505b6020821081036200015f57634e487b7160e01b600052602260045260246000fd5b50919050565b601f821115620001b357600081815260208120601f850160051c810160208610156200018e5750805b601f850160051c820191505b81811015620001af578281556001016200019a565b5050505b505050565b81516001600160401b03811115620001d457620001d462000113565b620001ec81620001e5845462000129565b8462000165565b602080601f8311600181146200022457600084156200020b5750858301515b600019600386901b1c1916600185901b178555620001af565b600085815260208120601f198616915b82811015620002555788860151825594840194600190910190840162000234565b5085821015620002745787850151600019600388901b60f8161c191681555b5050505050600190811b01905550565b61274e80620002946000396000f3fe6080604052600436106102675760003560e01c80636aa71d1811610144578063a265690c116100b6578063c6a5679b1161007a578063c6a5679b14610716578063c87b56dd1461074c578063e904633e1461076c578063e985e9c51461078c578063eddd0d9c146107d5578063f2fde38b146107f557600080fd5b8063a265690c14610680578063a7f2393d146106a0578063af6a52b5146106c0578063b88d4fde146106d6578063bba948e2146106f657600080fd5b806383f7c1661161010857806383f7c166146105d85780638428488e146105ed5780638da5cb5b1461060d57806395d89b411461062b5780639b825fc414610640578063a22cb4651461066057600080fd5b80636aa71d181461054157806370a082311461056e578063715018a61461058e5780637a5caab3146105a35780637fa803c3146105b857600080fd5b8063344a681e116101dd57806342842e0e116101a157806342842e0e146104815780634ac2c003146104a15780634f6ccce7146104b657806351858e27146104d657806356874e0a146104eb5780636352211e1461052157600080fd5b8063344a681e146103ec578063345a98c41461040c5780633950891f1461041f5780633ccfd60b1461044c5780634081fd941461046157600080fd5b806314dce7dc1161022f57806314dce7dc1461034157806318160ddd146103615780631d6c3572146103765780632000d4301461039657806323b872dd146103ac5780632f745c59146103cc57600080fd5b806301ffc9a71461026c57806306fdde03146102a1578063081812fc146102c3578063095ea7b3146102fb57806313966db51461031d575b600080fd5b34801561027857600080fd5b5061028c610287366004612038565b610815565b60405190151581526020015b60405180910390f35b3480156102ad57600080fd5b506102b6610826565b604051610298919061209b565b3480156102cf57600080fd5b506102e36102de3660046120ae565b6108b8565b6040516001600160a01b039091168152602001610298565b34801561030757600080fd5b5061031b6103163660046120e3565b6108df565b005b34801561032957600080fd5b50610333600d5481565b604051908152602001610298565b34801561034d57600080fd5b5061033361035c36600461210d565b6109f9565b34801561036d57600080fd5b50600854610333565b34801561038257600080fd5b5061033361039136600461210d565b610a6c565b3480156103a257600080fd5b50610333600f5481565b3480156103b857600080fd5b5061031b6103c7366004612128565b610acd565b3480156103d857600080fd5b506103336103e73660046120e3565b610afe565b3480156103f857600080fd5b5061031b6104073660046120ae565b610b94565b61031b61041a366004612210565b610bd8565b34801561042b57600080fd5b5061033361043a36600461210d565b60106020526000908152604090205481565b34801561045857600080fd5b5061031b610e5d565b34801561046d57600080fd5b5061031b61047c3660046120ae565b610f58565b34801561048d57600080fd5b5061031b61049c366004612128565b610f95565b3480156104ad57600080fd5b50600e54610333565b3480156104c257600080fd5b506103336104d13660046120ae565b610fb0565b3480156104e257600080fd5b5061031b611043565b3480156104f757600080fd5b5061033361050636600461210d565b6001600160a01b031660009081526010602052604090205490565b34801561052d57600080fd5b506102e361053c3660046120ae565b611052565b34801561054d57600080fd5b5061033361055c36600461210d565b60116020526000908152604090205481565b34801561057a57600080fd5b5061033361058936600461210d565b6110b2565b34801561059a57600080fd5b5061031b611138565b3480156105af57600080fd5b50600d54610333565b3480156105c457600080fd5b506103336105d336600461210d565b61114c565b3480156105e457600080fd5b50600f54610333565b3480156105f957600080fd5b506103336106083660046120ae565b611172565b34801561061957600080fd5b50600a546001600160a01b03166102e3565b34801561063757600080fd5b506102b66111ac565b34801561064c57600080fd5b5061031b61065b3660046122a0565b6111bb565b34801561066c57600080fd5b5061031b61067b3660046122c2565b611239565b34801561068c57600080fd5b506102b661069b3660046120ae565b611244565b3480156106ac57600080fd5b5061031b6106bb3660046120ae565b611309565b3480156106cc57600080fd5b50610333600e5481565b3480156106e257600080fd5b5061031b6106f13660046122fe565b611316565b34801561070257600080fd5b506102b66107113660046120ae565b611348565b34801561072257600080fd5b5061033361073136600461210d565b6001600160a01b031660009081526011602052604090205490565b34801561075857600080fd5b506102b66107673660046120ae565b611388565b34801561077857600080fd5b5061028c61078736600461210d565b6113c8565b34801561079857600080fd5b5061028c6107a736600461237a565b6001600160a01b03918216600090815260056020908152604080832093909416825291909152205460ff1690565b3480156107e157600080fd5b5061031b6107f03660046120ae565b611439565b34801561080157600080fd5b5061031b61081036600461210d565b611476565b6000610820826114ef565b92915050565b606060008054610835906123ad565b80601f0160208091040260200160405190810160405280929190818152602001828054610861906123ad565b80156108ae5780601f10610883576101008083540402835291602001916108ae565b820191906000526020600020905b81548152906001019060200180831161089157829003601f168201915b5050505050905090565b60006108c382611514565b506000908152600460205260409020546001600160a01b031690565b60006108ea82611052565b9050806001600160a01b0316836001600160a01b03160361095c5760405162461bcd60e51b815260206004820152602160248201527f4552433732313a20617070726f76616c20746f2063757272656e74206f776e656044820152603960f91b60648201526084015b60405180910390fd5b336001600160a01b0382161480610978575061097881336107a7565b6109ea5760405162461bcd60e51b815260206004820152603d60248201527f4552433732313a20617070726f76652063616c6c6572206973206e6f7420746f60448201527f6b656e206f776e6572206f7220617070726f76656420666f7220616c6c0000006064820152608401610953565b6109f48383611564565b505050565b6001600160a01b0381166000908152601160205260408120548103610a2057506000919050565b6001600160a01b038216600090815260116020526040812054610a4390426123fd565b9050600f548110610a575750600092915050565b80600f54610a6591906123fd565b9392505050565b60008080610a79846110b2565b905060005b81811015610ac4576000610a928683610afe565b600081815260136020526040902054909150610aae9085612410565b9350508080610abc90612423565b915050610a7e565b50909392505050565b610ad733826115d2565b610af35760405162461bcd60e51b81526004016109539061243c565b6109f4838383611651565b6000610b09836110b2565b8210610b6b5760405162461bcd60e51b815260206004820152602b60248201527f455243373231456e756d657261626c653a206f776e657220696e646578206f7560448201526a74206f6620626f756e647360a81b6064820152608401610953565b506001600160a01b03919091166000908152600660209081526040808320938352929052205490565b610b9c6117ca565b600f8190556040518181527f583d8b24c5439ab7d810e51e37e8db41ba66f1168fd7b752ceae0c7681c5272c906020015b60405180910390a150565b610be0611824565b600d54341015610c2a5760405162461bcd60e51b8152602060048201526015602482015274496e73756666696369656e74206d696e742066656560581b6044820152606401610953565b600e543360009081526010602052604090205410610c7f5760405162461bcd60e51b8152602060048201526012602482015271135a5b9d081b1a5b5a5d081c995858da195960721b6044820152606401610953565b600f5433600090815260116020526040902054610c9c90426123fd565b1015610cdc5760405162461bcd60e51b815260206004820152600f60248201526e436f6f6c646f776e2061637469766560881b6044820152606401610953565b6000845111610d205760405162461bcd60e51b815260206004820152601060248201526f125b9d985b1a590812541194c810d25160821b6044820152606401610953565b6000825111610d685760405162461bcd60e51b8152602060048201526014602482015273496e76616c6964205852504c206164647265737360601b6044820152606401610953565b336000908152601060205260408120805491610d8383612423565b9091555050336000908152601160205260409020429055610da8600c80546001019055565b6000610db3600c5490565b9050610dbf338261187d565b610dc98185611897565b6000818152601560205260409020610de186826124d7565b506000818152601260205260409020610dfa84826124d7565b506000818152601360205260409081902083905551819033907ffc707981240c71b8394400ffaafe9301aebba75d72eb4345bdb85bbc7a545a3490610e4490899088908890612597565b60405180910390a350610e576001600b55565b50505050565b610e656117ca565b4780610eac5760405162461bcd60e51b81526020600482015260166024820152754e6f2062616c616e636520746f20776974686472617760501b6044820152606401610953565b6000610ec0600a546001600160a01b031690565b6001600160a01b03168260405160006040518083038185875af1925050503d8060008114610f0a576040519150601f19603f3d011682016040523d82523d6000602084013e610f0f565b606091505b5050905080610f545760405162461bcd60e51b815260206004820152601160248201527015da5d1a191c985dd85b0819985a5b1959607a1b6044820152606401610953565b5050565b610f606117ca565b600e8190556040518181527f97fed08074344d3358ac58ba6c4f8ff0c34f359da1d8146fd7e93cd0c4f6f09290602001610bcd565b6109f483838360405180602001604052806000815250611316565b6000610fbb60085490565b821061101e5760405162461bcd60e51b815260206004820152602c60248201527f455243373231456e756d657261626c653a20676c6f62616c20696e646578206f60448201526b7574206f6620626f756e647360a01b6064820152608401610953565b60088281548110611031576110316125cd565b90600052602060002001549050919050565b61104b6117ca565b6000600e55565b6000818152600260205260408120546001600160a01b0316806108205760405162461bcd60e51b8152602060048201526018602482015277115490cdcc8c4e881a5b9d985b1a59081d1bdad95b88125160421b6044820152606401610953565b60006001600160a01b03821661111c5760405162461bcd60e51b815260206004820152602960248201527f4552433732313a2061646472657373207a65726f206973206e6f7420612076616044820152683634b21037bbb732b960b91b6064820152608401610953565b506001600160a01b031660009081526003602052604090205490565b6111406117ca565b61114a60006118d4565b565b6001600160a01b038116600090815260106020526040812054600e5461082091906123fd565b600061117d82611926565b6111995760405162461bcd60e51b8152600401610953906125e3565b5060009081526013602052604090205490565b606060018054610835906123ad565b6111c36117ca565b6111cc82611926565b6111e85760405162461bcd60e51b8152600401610953906125e3565b600082815260136020526040908190208290555182907f930ce0b118181ba73b66daf009c435b91ba742615d465ab362baf09255a0eccc9061122d9084815260200190565b60405180910390a25050565b610f54338383611943565b606061124f82611926565b61126b5760405162461bcd60e51b8152600401610953906125e3565b60008281526015602052604090208054611284906123ad565b80601f01602080910402602001604051908101604052809291908181526020018280546112b0906123ad565b80156112fd5780601f106112d2576101008083540402835291602001916112fd565b820191906000526020600020905b8154815290600101906020018083116112e057829003601f168201915b50505050509050919050565b6113116117ca565b600e55565b61132033836115d2565b61133c5760405162461bcd60e51b81526004016109539061243c565b610e5784848484611a11565b606061135382611926565b61136f5760405162461bcd60e51b8152600401610953906125e3565b60008281526012602052604090208054611284906123ad565b606061139382611926565b6113af5760405162461bcd60e51b8152600401610953906125e3565b60008281526014602052604090208054611284906123ad565b600e546001600160a01b03821660009081526010602052604081205490911180156108205750600f546001600160a01b03831660009081526011602052604090205461141490426123fd565b1015806108205750506001600160a01b03166000908152601160205260409020541590565b6114416117ca565b600d8190556040518181527f38fbb1c8b109c430f0c030e7ed076cf5611a307773a4e8e365601e8f8bceaec690602001610bcd565b61147e6117ca565b6001600160a01b0381166114e35760405162461bcd60e51b815260206004820152602660248201527f4f776e61626c653a206e6577206f776e657220697320746865207a65726f206160448201526564647265737360d01b6064820152608401610953565b6114ec816118d4565b50565b60006001600160e01b0319821663780e9d6360e01b1480610820575061082082611a44565b61151d81611926565b6114ec5760405162461bcd60e51b8152602060048201526018602482015277115490cdcc8c4e881a5b9d985b1a59081d1bdad95b88125160421b6044820152606401610953565b600081815260046020526040902080546001600160a01b0319166001600160a01b038416908117909155819061159982611052565b6001600160a01b03167f8c5be1e5ebec7d5bd14f71427d1e84f3dd0314c0f7b2291e5b200ac8c7c3b92560405160405180910390a45050565b6000806115de83611052565b9050806001600160a01b0316846001600160a01b0316148061162557506001600160a01b0380821660009081526005602090815260408083209388168352929052205460ff165b806116495750836001600160a01b031661163e846108b8565b6001600160a01b0316145b949350505050565b826001600160a01b031661166482611052565b6001600160a01b03161461168a5760405162461bcd60e51b815260040161095390612611565b6001600160a01b0382166116ec5760405162461bcd60e51b8152602060048201526024808201527f4552433732313a207472616e7366657220746f20746865207a65726f206164646044820152637265737360e01b6064820152608401610953565b6116f98383836001611a94565b826001600160a01b031661170c82611052565b6001600160a01b0316146117325760405162461bcd60e51b815260040161095390612611565b600081815260046020908152604080832080546001600160a01b03199081169091556001600160a01b0387811680865260038552838620805460001901905590871680865283862080546001019055868652600290945282852080549092168417909155905184937fddf252ad1be2c89b69c2b068fc378daa952ba7f163c4a11628f55a4df523b3ef91a46109f48383836001611aa0565b600a546001600160a01b0316331461114a5760405162461bcd60e51b815260206004820181905260248201527f4f776e61626c653a2063616c6c6572206973206e6f7420746865206f776e65726044820152606401610953565b6002600b54036118765760405162461bcd60e51b815260206004820152601f60248201527f5265656e7472616e637947756172643a207265656e7472616e742063616c6c006044820152606401610953565b6002600b55565b610f54828260405180602001604052806000815250611aa5565b6118a082611926565b6118bc5760405162461bcd60e51b8152600401610953906125e3565b60008281526014602052604090206109f482826124d7565b600a80546001600160a01b038381166001600160a01b0319831681179093556040519116919082907f8be0079c531659141344cd1fd0a4f28419497f9722a3daafe3b4186f6b6457e090600090a35050565b6000908152600260205260409020546001600160a01b0316151590565b816001600160a01b0316836001600160a01b0316036119a45760405162461bcd60e51b815260206004820152601960248201527f4552433732313a20617070726f766520746f2063616c6c6572000000000000006044820152606401610953565b6001600160a01b03838116600081815260056020908152604080832094871680845294825291829020805460ff191686151590811790915591519182527f17307eab39ab6107e8899845ad3d59bd9653f200f220920489ca2b5937696c31910160405180910390a3505050565b611a1c848484611651565b611a2884848484611ad8565b610e575760405162461bcd60e51b815260040161095390612656565b60006001600160e01b031982166380ac58cd60e01b1480611a7557506001600160e01b03198216635b5e139f60e01b145b8061082057506301ffc9a760e01b6001600160e01b0319831614610820565b610e5784848484611bd9565b610e57565b611aaf8383611d0d565b611abc6000848484611ad8565b6109f45760405162461bcd60e51b815260040161095390612656565b60006001600160a01b0384163b15611bce57604051630a85bd0160e11b81526001600160a01b0385169063150b7a0290611b1c9033908990889088906004016126a8565b6020604051808303816000875af1925050508015611b57575060408051601f3d908101601f19168201909252611b54918101906126e5565b60015b611bb4573d808015611b85576040519150601f19603f3d011682016040523d82523d6000602084013e611b8a565b606091505b508051600003611bac5760405162461bcd60e51b815260040161095390612656565b805181602001fd5b6001600160e01b031916630a85bd0160e11b149050611649565b506001949350505050565b6001811115611c485760405162461bcd60e51b815260206004820152603560248201527f455243373231456e756d657261626c653a20636f6e7365637574697665207472604482015274185b9cd9995c9cc81b9bdd081cdd5c1c1bdc9d1959605a1b6064820152608401610953565b816001600160a01b038516611ca457611c9f81600880546000838152600960205260408120829055600182018355919091527ff3f7a9fe364faab93b216da50a3214154f22a0a2b415b23a84c8169e8b636ee30155565b611cc7565b836001600160a01b0316856001600160a01b031614611cc757611cc78582611e92565b6001600160a01b038416611ce357611cde81611f2f565b611d06565b846001600160a01b0316846001600160a01b031614611d0657611d068482611fde565b5050505050565b6001600160a01b038216611d635760405162461bcd60e51b815260206004820181905260248201527f4552433732313a206d696e7420746f20746865207a65726f20616464726573736044820152606401610953565b611d6c81611926565b15611db95760405162461bcd60e51b815260206004820152601c60248201527f4552433732313a20746f6b656e20616c7265616479206d696e746564000000006044820152606401610953565b611dc7600083836001611a94565b611dd081611926565b15611e1d5760405162461bcd60e51b815260206004820152601c60248201527f4552433732313a20746f6b656e20616c7265616479206d696e746564000000006044820152606401610953565b6001600160a01b038216600081815260036020908152604080832080546001019055848352600290915280822080546001600160a01b0319168417905551839291907fddf252ad1be2c89b69c2b068fc378daa952ba7f163c4a11628f55a4df523b3ef908290a4610f54600083836001611aa0565b60006001611e9f846110b2565b611ea991906123fd565b600083815260076020526040902054909150808214611efc576001600160a01b03841660009081526006602090815260408083208584528252808320548484528184208190558352600790915290208190555b5060009182526007602090815260408084208490556001600160a01b039094168352600681528383209183525290812055565b600854600090611f41906001906123fd565b60008381526009602052604081205460088054939450909284908110611f6957611f696125cd565b906000526020600020015490508060088381548110611f8a57611f8a6125cd565b6000918252602080832090910192909255828152600990915260408082208490558582528120556008805480611fc257611fc2612702565b6001900381819060005260206000200160009055905550505050565b6000611fe9836110b2565b6001600160a01b039093166000908152600660209081526040808320868452825280832085905593825260079052919091209190915550565b6001600160e01b0319811681146114ec57600080fd5b60006020828403121561204a57600080fd5b8135610a6581612022565b6000815180845260005b8181101561207b5760208185018101518683018201520161205f565b506000602082860101526020601f19601f83011685010191505092915050565b602081526000610a656020830184612055565b6000602082840312156120c057600080fd5b5035919050565b80356001600160a01b03811681146120de57600080fd5b919050565b600080604083850312156120f657600080fd5b6120ff836120c7565b946020939093013593505050565b60006020828403121561211f57600080fd5b610a65826120c7565b60008060006060848603121561213d57600080fd5b612146846120c7565b9250612154602085016120c7565b9150604084013590509250925092565b634e487b7160e01b600052604160045260246000fd5b600067ffffffffffffffff8084111561219557612195612164565b604051601f8501601f19908116603f011681019082821181831017156121bd576121bd612164565b816040528093508581528686860111156121d657600080fd5b858560208301376000602087830101525050509392505050565b600082601f83011261220157600080fd5b610a658383356020850161217a565b6000806000806080858703121561222657600080fd5b843567ffffffffffffffff8082111561223e57600080fd5b61224a888389016121f0565b9550602087013591508082111561226057600080fd5b61226c888389016121f0565b9450604087013591508082111561228257600080fd5b5061228f878288016121f0565b949793965093946060013593505050565b600080604083850312156122b357600080fd5b50508035926020909101359150565b600080604083850312156122d557600080fd5b6122de836120c7565b9150602083013580151581146122f357600080fd5b809150509250929050565b6000806000806080858703121561231457600080fd5b61231d856120c7565b935061232b602086016120c7565b925060408501359150606085013567ffffffffffffffff81111561234e57600080fd5b8501601f8101871361235f57600080fd5b61236e8782356020840161217a565b91505092959194509250565b6000806040838503121561238d57600080fd5b612396836120c7565b91506123a4602084016120c7565b90509250929050565b600181811c908216806123c157607f821691505b6020821081036123e157634e487b7160e01b600052602260045260246000fd5b50919050565b634e487b7160e01b600052601160045260246000fd5b81810381811115610820576108206123e7565b80820180821115610820576108206123e7565b600060018201612435576124356123e7565b5060010190565b6020808252602d908201527f4552433732313a2063616c6c6572206973206e6f7420746f6b656e206f776e6560408201526c1c881bdc88185c1c1c9bdd9959609a1b606082015260800190565b601f8211156109f457600081815260208120601f850160051c810160208610156124b05750805b601f850160051c820191505b818110156124cf578281556001016124bc565b505050505050565b815167ffffffffffffffff8111156124f1576124f1612164565b612505816124ff84546123ad565b84612489565b602080601f83116001811461253a57600084156125225750858301515b600019600386901b1c1916600185901b1785556124cf565b600085815260208120601f198616915b828110156125695788860151825594840194600190910190840161254a565b50858210156125875787850151600019600388901b60f8161c191681555b5050505050600190811b01905550565b6060815260006125aa6060830186612055565b82810360208401526125bc8186612055565b915050826040830152949350505050565b634e487b7160e01b600052603260045260246000fd5b602080825260149082015273151bdad95b88191bd95cc81b9bdd08195e1a5cdd60621b604082015260600190565b60208082526025908201527f4552433732313a207472616e736665722066726f6d20696e636f72726563742060408201526437bbb732b960d91b606082015260800190565b60208082526032908201527f4552433732313a207472616e7366657220746f206e6f6e20455243373231526560408201527131b2b4bb32b91034b6b83632b6b2b73a32b960711b606082015260800190565b6001600160a01b03858116825284166020820152604081018390526080606082018190526000906126db90830184612055565b9695505050505050565b6000602082840312156126f757600080fd5b8151610a6581612022565b634e487b7160e01b600052603160045260246000fdfea2646970667358221220d6f99b2cfa1759877154aee09254b7f8d02f80cfd8d046b7c751e120fdcbfb6b64736f6c63430008130033",
  "linkReferences": {},
  "deployedLinkReferences": {}
}